:100000000C9446000C945D000C945D000C945D0013
:100010000C945D000C945D000C945D000C945D00EC
:100020000C945D000C945D000C945D000C945D00DC
:100030000C945D000C945D000C945D000C945D00CC
:100040000C945D000C945D000C945D000C945D00BC
:100050000C945D000C945D000C945D000C945D00AC
:100060000C945D000C945D000C945D000C945D009C
:100070000C945D000C945D000C945D000C945D008C
:100080000C945D000C945D000C945D0011241FBE67
:10009000CFEFD0E4DEBFCDBF11E0A0E0B1E0E4EEF1
:1000A000F1E000E00BBF02C007900D92AE30B10747
:1000B000D9F70E9488000C94F0000C940000CF93B4
:1000C000DF9300D01F92CDB7DEB789837B836A832D
:1000D00089818A3031F48A819B81BC018DE00E9444
:1000E0005F0080EC90E0FC018081882F90E08072BE
:1000F00099270097B1F386EC90E02981FC012083D9
:1001000080E090E00F900F900F90DF91CF910895D5
:10011000CF93DF9300D000D0CDB7DEB781E290E07F
:10012000FC01108282E290E02FEFFC01208384E248
:1001300090E02EEFFC01208385E290E0FC0110822C
:100140001C82198281E090E09B838A8380E290E0A8
:10015000FC01808183708C838A819B818130910531
:10016000A9F08130910538F082309105D1F08330CB
:10017000910511F12AC081E089838C81882329F4BB
:1001800081E090E09B838A8325C024C081E089833D
:100190008C81882329F082E090E09B838A831AC0B7
:1001A00019C082E089838C81882329F483E090E060
:1001B0009B838A830FC00EC082E089838C81882351
:1001C00019F01B821A8206C005C081E090E09B8373
:1001D0008A83000085E290E02981FC012083B6CF6C
:0401E000F894FFCFC1
:0E01E40000000002000000005F0000000000AC
:00000001FF
