:100000000C9446000C945D000C945D000C945D0013
:100010000C945D000C945D000C945D000C945D00EC
:100020000C945D000C945D000C945D000C945D00DC
:100030000C945D000C945D000C945D000C945D00CC
:100040000C945D000C945D000C945D000C945D00BC
:100050000C945D000C945D000C945D000C945D00AC
:100060000C945D000C945D000C945D000C945D009C
:100070000C945D000C945D000C945D000C945D008C
:100080000C945D000C945D000C945D0011241FBE67
:10009000CFEFD0E4DEBFCDBF11E0A0E0B1E0E0E003
:1000A000F3E000E00BBF02C007900D92AE30B10745
:1000B000D9F70E9488000C947E010C940000CF9325
:1000C000DF9300D01F92CDB7DEB789837B836A832D
:1000D00089818A3031F48A819B81BC018DE00E9444
:1000E0005F0080EC90E0FC018081882F90E08072BE
:1000F00099270097B1F386EC90E02981FC012083D9
:1001000080E090E00F900F900F90DF91CF910895D5
:10011000CF93DF93CDB7DEB72A970FB6F894DEBF43
:100120000FBECDBF81E290E0FC01108282E290E040
:100130002FEFFC01208384E290E02FEFFC0120836D
:1001400085E290E0FC01108287E290E02FEFFC0155
:10015000208388E290E0FC01108283E08F8381E0BD
:10016000888782E0898781E08A871E8219821A82C5
:100170001B8280E290E0FC0180818E838C819D81D6
:100180008130910501F18130910548F0823091056F
:1001900009F441C08330910509F458C081C08B81B6
:1001A000882F90E09E01295F3F4F820F931FFC0133
:1001B00090818E81981729F481E090E09D838C8353
:1001C00072C01B8270C08B81833031F482E090E07A
:1001D0009D838C831B821EC08E81882331F48B818A
:1001E0008F5F8B831D821C8215C08B81882F90E0CE
:1001F0009E01295F3F4F820F931FFC0190818E81EA
:10020000981729F481E090E09D838C8303C01D82C0
:100210001C8249C048C08E81803819F41D821C821E
:1002200014C08B81882F90E09E01295F3F4F820F81
:10023000931FFC0190818E81981729F483E090E050
:100240009D838C8302C01B822EC02DC08B81833086
:1002500021F41D821C821B8222C08E81882341F4DE
:100260008B818F5F8B8382E090E09D838C8317C0AE
:100270008B81882F90E09E01295F3F4F820F931F53
:10028000FC0190818E81981729F483E090E09D8392
:100290008C8305C082E090E09D838C8304C003C002
:1002A0001D821C8200008C819D818130910569F046
:1002B0008130910538F08230910559F083309105F5
:1002C00069F011C019821A820EC0198281E08A83F6
:1002D0000AC081E0898382E08A8305C081E0898346
:1002E00083E08A83000085E290E02981FC0120837D
:1002F00088E290E02A81FC0120833BCFF894FFCF75
:0E03000000000002000000005F00000000008E
:00000001FF
