:100000000C9446000C945D000C945D000C945D0013
:100010000C945D000C945D000C945D000C945D00EC
:100020000C945D000C945D000C945D000C945D00DC
:100030000C945D000C945D000C945D000C945D00CC
:100040000C945D000C945D000C945D000C945D00BC
:100050000C945D000C945D000C945D000C945D00AC
:100060000C945D000C945D000C945D000C945D009C
:100070000C945D000C945D000C945D000C945D008C
:100080000C945D000C945D000C945D0011241FBE67
:10009000CFEFD0E4DEBFCDBF11E0A0E0B1E0E6E0FD
:1000A000F3E000E00BBF02C007900D92AE30B10745
:1000B000D9F70E9488000C9481010C940000CF9322
:1000C000DF9300D01F92CDB7DEB789837B836A832D
:1000D00089818A3031F48A819B81BC018DE00E9444
:1000E0005F0080EC90E0FC018081882F90E08072BE
:1000F00099270097B1F386EC90E02981FC012083D9
:1001000080E090E00F900F900F90DF91CF910895D5
:10011000CF93DF93CDB7DEB72A970FB6F894DEBF43
:100120000FBECDBF81E290E0FC01108282E290E040
:100130002FEFFC01208384E290E02FEFFC0120836D
:1001400085E290E0FC01108287E290E02FEFFC0155
:10015000208388E290E0FC01108284E08F8381E0BC
:10016000888782E0898781E08A871E8219821A82C5
:100170001B8280E290E0FC0180818E838C819D81D6
:100180008130910561F18130910548F0823091050F
:1001900009F443C08330910509F463C084C08B81A6
:1001A000882F90E09E01295F3F4F820F931FFC0133
:1001B00090818E81981781F48B818F5F8B8381E092
:1001C00090E09D838C838B81843041F482E090E0C9
:1001D0009D838C831B826AC01B8268C067C08E812E
:1001E000882319F41D821C8217C08B81882F90E010
:1001F00001979E01295F3F4F820F931FFC01908161
:100200008E81981729F481E090E09D838C8304C04F
:100210001B821D821C824AC049C08E81803819F41D
:100220001D821C821DC08B81882F90E09E01295F5A
:100230003F4F820F931FFC0190818E81981771F4BC
:100240008B818F5F8B8383E090E09D838C838B8198
:10025000843031F41D821C821B8228C01B8226C080
:1002600025C08E81882329F482E090E09D838C83D1
:1002700019C08B81882F90E001979E01295F3F4F25
:10028000820F931FFC0190818E81981729F483E0DF
:1002900090E09D838C8306C01B8282E090E09D836A
:1002A0008C8304C003C01D821C8200008C819D8150
:1002B0008130910569F08130910538F082309105E7
:1002C00059F08330910569F011C019821A820EC06D
:1002D000198281E08A830AC081E0898382E08A836F
:1002E00005C081E0898383E08A83000085E290E095
:1002F0002981FC01208388E290E02A81FC0120838F
:0603000038CFF894FFCF96
:0E03060000000002000000005F000000000088
:00000001FF
