:100000000C9446000C945D000C945D000C945D0013
:100010000C945D000C945D000C945D000C945D00EC
:100020000C945D000C945D000C945D000C945D00DC
:100030000C945D000C945D000C945D000C945D00CC
:100040000C945D000C945D000C945D000C945D00BC
:100050000C945D000C945D000C945D000C945D00AC
:100060000C945D000C945D000C945D000C945D009C
:100070000C945D000C945D000C945D000C945D008C
:100080000C945D000C945D000C945D0011241FBE67
:10009000CFEFD0E4DEBFCDBF11E0A0E0B1E0E0ECF7
:1000A000F2E000E00BBF02C007900D92AE30B10746
:1000B000D9F70E9488000C945E010C940000CF9345
:1000C000DF9300D01F92CDB7DEB789837B836A832D
:1000D00089818A3031F48A819B81BC018DE00E9444
:1000E0005F0080EC90E0FC018081882F90E08072BE
:1000F00099270097B1F386EC90E02981FC012083D9
:1001000080E090E00F900F900F90DF91CF910895D5
:10011000CF93DF93CDB7DEB728970FB6F894DEBF45
:100120000FBECDBF81E290E0FC01108282E290E040
:100130002FEFFC01208384E290E02FEFFC0120836D
:1001400085E290E0FC01108287E290E02FEFFC0155
:10015000208388E290E0FC0110821D821E821F82B3
:10016000188619821A8280E290E0FC0180818170F9
:100170008D8380E290E0FC01808182708E8380E23A
:1001800090E0FC01808184708F8380E290E0FC012C
:100190008081807888878B819C8181309105D1F026
:1001A0008130910540F082309105A1F183309105B5
:1001B00009F450C056C08D81882359F48F8188235B
:1001C00041F08E81882329F481E090E09C838B8329
:1001D0004BC04AC08D81882359F48F81882341F414
:1001E0008E81882329F482E090E09C838B8311C068
:1001F0008D81882359F48F81882341F08E81882353
:1002000029F481E090E09C838B8303C01C821B82D5
:100210002BC02AC08D81882359F48F81882341F413
:100220008E81882329F083E090E09C838B8311C02A
:100230008D81882359F48F81882341F48E8188230E
:1002400029F482E090E09C838B8303C01C821B8294
:100250000BC00AC08885882319F01C821B8204C049
:1002600003C01C821B8200008B819C818130910520
:1002700069F08130910538F08230910559F0833072
:10028000910561F010C019821A820DC0198281E0B7
:100290008A8309C0198282E08A8305C081E089834C
:1002A00083E08A83000085E290E02981FC012083BD
:1002B00088E290E02A81FC01208355CFF894FFCF9B
:0E02C00000000002000000005F0000000000CF
:00000001FF
