:100000000C9446000C945D000C945D000C945D0013
:100010000C945D000C945D000C945D000C945D00EC
:100020000C945D000C945D000C945D000C945D00DC
:100030000C945D000C945D000C945D000C945D00CC
:100040000C945D000C945D000C945D000C945D00BC
:100050000C945D000C945D000C945D000C945D00AC
:100060000C945D000C945D000C945D000C945D009C
:100070000C945D000C945D000C945D000C945D008C
:100080000C945D000C945D000C945D0011241FBE67
:10009000CFEFD0E4DEBFCDBF11E0A0E0B1E0ECE0F7
:1000A000F3E000E00BBF02C007900D92AE30B10745
:1000B000D9F70E9488000C9484010C940000CF931F
:1000C000DF9300D01F92CDB7DEB789837B836A832D
:1000D00089818A3031F48A819B81BC018DE00E9444
:1000E0005F0080EC90E0FC018081882F90E08072BE
:1000F00099270097B1F386EC90E02981FC012083D9
:1001000080E090E00F900F900F90DF91CF910895D5
:10011000CF93DF93CDB7DEB72A970FB6F894DEBF43
:100120000FBECDBF81E290E0FC01108282E290E040
:100130002FEFFC01208384E290E02FEFFC0120836D
:1001400085E290E0FC01108287E290E02FEFFC0155
:10015000208388E290E0FC01108284E08F8381E0BC
:10016000888782E0898781E08A871E8219821A82C5
:100170001B8280E290E0FC0180818E838C819D81D6
:100180008130910571F18130910548F082309105FF
:1001900009F445C08330910509F466C087C08B819E
:1001A000882F90E09E01295F3F4F820F931FFC0133
:1001B00090818E81981791F48B818F5F8B8381E082
:1001C00090E09D838C838B81843051F482E090E0B9
:1001D0009D838C831B8281E089836BC01B8269C0F5
:1001E00068C08E81882319F41D821C8217C08B8100
:1001F000882F90E001979E01295F3F4F820F931F48
:10020000FC0190818E81981729F481E090E09D8314
:100210008C8304C01B821D821C824BC04AC08E810D
:10022000803819F41D821C821EC08B81882F90E0BB
:100230009E01295F3F4F820F931FFC0190818E81A9
:10024000981779F48B818F5F8B8383E090E09D8397
:100250008C838B81843039F41D821C821B8219822D
:1002600028C01B8226C025C08E81882329F482E005
:1002700090E09D838C8319C08B81882F90E001973B
:100280009E01295F3F4F820F931FFC0190818E8159
:10029000981729F483E090E09D838C8306C01B822D
:1002A00082E090E09D838C8304C003C01D821C8289
:1002B00000008C819D818130910569F0813091052C
:1002C00038F08230910559F08330910569F011C002
:1002D00019821A820EC0198281E08A830AC081E0E5
:1002E000898382E08A8305C081E0898383E08A83F1
:1002F000000085E290E02981FC01208388E290E003
:0C0300002A81FC01208335CFF894FFCF48
:0E030C0000000002000000005F000000000082
:00000001FF
